:100000000C9463000C948B000C948B000C948B006C
:100010000C948B000C948B000C948B000C948B0034
:100020000C948B000C948B000C948B000C94AB05FF
:100030000C948B000C948B000C948B000C948B0014
:100040000C9461050C948B000C942F050C940905FD
:100050000C948B000C948B000C948B000C948B00F4
:100060000C948B000C948B000000000024002700EF
:100070002A0000000000250028002B0000000000DE
:1000800023002600290004040404040404040202DA
:100090000202020203030303030301020408102007
:1000A0004080010204081020010204081020000012
:1000B0000008000201000003040700000000000027
:1000C0000000EE06B90611241FBECFEFD8E0DEBF58
:1000D000CDBF22E0AAEAB1E001C01D92AD3AB2075D
:1000E000E1F711E0A0E0B1E0EEEBF9E102C005902C
:1000F0000D92AA3AB107D9F710E0C2E6D0E004C0E9
:100100002197FE010E94D50AC136D107C9F70E9486
:100110009C070C94D20C0C940000FC01538D448D70
:10012000252F30E0842F90E0821B930B541710F0A2
:10013000CF96089501970895FC01918D828D9817AF
:1001400061F0A28DAE0FBF2FB11D5D968C91928D87
:100150009F5F9F73928F90E008958FEF9FEF0895B8
:10016000FC01918D828D981731F0828DE80FF11D81
:10017000858D90E008958FEF9FEF0895FC01918D9C
:10018000228D892F90E0805C9F4F821B91098F7395
:1001900099270895FC01A48DA80FB92FB11DA35A6A
:1001A000BF4F2C91848D90E001968F739927848F97
:1001B000A689B7892C93A089B1898C9183708064BA
:1001C0008C93938D848D981306C00288F389E02D5B
:1001D00080818F7D80830895EF92FF920F931F930C
:1001E000CF93DF93EC0181E0888F9B8D8C8D9813EA
:1001F0001AC0E889F989808185FF15C09FB7F894F6
:10020000EE89FF896083E889F98980818370806441
:1002100080839FBF81E090E0DF91CF911F910F918C
:10022000FF90EF900895F62E0B8D10E00F5F1F4F9B
:100230000F731127E02E8C8D8E110CC00FB607FCAA
:10024000FACFE889F989808185FFF5CFCE010E9438
:10025000CA00F1CFEB8DEC0FFD2FF11DE35AFF4FDC
:10026000F0829FB7F8940B8FEA89FB8980818062C6
:10027000CFCFCF93DF93EC01888D8823B9F0AA8983
:10028000BB89E889F9898C9185FD03C0808186FD51
:100290000DC00FB607FCF7CF8C9185FFF2CF8081A0
:1002A00085FFEDCFCE010E94CA00E9CFDF91CF914B
:1002B000089583EE91E00E94BE0021E0892B09F4AD
:1002C00020E0822F089580E090E0892B29F00E94A1
:1002D000590181110C9400000895AF92BF92CF9202
:1002E000DF92EF92FF920F931F93CF93DF936C01F6
:1002F0007B018B01040F151FEB015E01AE18BF08D7
:10030000C017D10759F06991D601ED91FC91019088
:10031000F081E02DC6010995892B79F7C501DF91A0
:10032000CF911F910F91FF90EF90DF90CF90BF90F2
:10033000AF900895FC01448155816081718182E90B
:1003400092E00C946D01833081F028F4813099F0B3
:100350008230A9F008958730A9F08830C9F0843040
:10036000B1F4809180008F7D03C0809180008F77F1
:1003700080938000089584B58F7784BD089584B5F7
:100380008F7DFBCF8091B0008F778093B000089570
:100390008091B0008F7DF9CFCF93DF93282F30E08D
:1003A000F901E255FF4F8491F901E656FF4FD491D0
:1003B000F901EA57FF4FC491CC23A1F081110E94AB
:1003C000A301EC2FF0E0EE0FFF1FE458FF4FA591C3
:1003D000B491EC91ED2381E090E009F480E0DF91AD
:1003E000CF91089580E090E0FACF1F93CF93DF93F1
:1003F000282F30E0F901E255FF4F8491F901E656CC
:10040000FF4FD491F901EA57FF4FC491CC23A9F0D3
:10041000162F81110E94A301EC2FF0E0EE0FFF1FB9
:10042000EE58FF4FA591B4918FB7F894EC9111114C
:1004300008C0D095DE23DC938FBFDF91CF911F9151
:100440000895DE2BF8CFCF93DF9390E0FC01E656C2
:10045000FF4F24918A579F4FFC0184918823D1F04C
:1004600090E0880F991FFC01E859FF4FA591B491C6
:10047000FC01EE58FF4FC591D49161110EC09FB79A
:10048000F8948C91E22FE0958E238C932881E223BF
:10049000E8839FBFDF91CF9108958FB7F894EC91D7
:1004A000E22BEC938FBFF6CF1F93CF93DF93182FE0
:1004B000EB0161E00E942302209739F460E0812F74
:1004C000DF91CF911F910C94F501CF3FD10511F42D
:1004D00061E0F5CFE12FF0E0E255FF4FE491E3302A
:1004E00031F140F4E130B1F0E230E1F0C038D10553
:1004F0007CF7E4CFE73029F1E83059F1E430B1F787
:1005000080918000806280938000D0938B00C093A4
:100510008A0004C084B5806884BDC7BDDF91CF91D7
:100520001F91089584B5806284BDC8BDF7CF8091C6
:100530008000806880938000D0938900C0938800F9
:10054000EDCF8091B00080688093B000C093B3007D
:10055000E5CF8091B00080628093B000C093B4007A
:10056000DDCF3FB7F8948091BD019091BE01A0917D
:10057000BF01B091C00126B5A89B05C02F3F19F05F
:100580000196A11DB11D3FBFBA2FA92F982F882713
:10059000BC01CD01620F711D811D911D42E0660FEE
:1005A000771F881F991F4A95D1F708958F929F92C0
:1005B000AF92BF92CF92DF92EF92FF924B015C011C
:1005C0000E94B1026B017C010E94B1026C197D098D
:1005D0008E099F09683E734081059105A8F321E0CB
:1005E000821A9108A108B10888EEC80E83E0D81ECF
:1005F000E11CF11C81149104A104B10429F7FF90BE
:10060000EF90DF90CF90BF90AF909F908F90089524
:10061000BF92CF92DF92EF92FF920F931F93CF93EF
:10062000DF938C01B42E6C018EE0C80ED11CD0E09B
:10063000C0E0E62EF12CB7010C2E02C0759567952F
:100640000A94E2F76170F60181916F010E94F50151
:100650002196CB1580F361E0F80185850E94F501B4
:1006600060E0F8018585DF91CF911F910F91FF9098
:10067000EF90DF90CF90BF900C94F501DC0156967F
:100680008C9156978F3F11F1E82FF0E0E255FF4F24
:10069000E49119962D913C91EE2361F070E0232BAB
:1006A00011F40C9454022FEF30E0A901461B570BB4
:1006B000BA01F7CF662329F0232B31F461E00C94C3
:1006C000F50121303105D1F360E0F9CF0895EF92C3
:1006D000FF921F93CF93DF93EC01162F7A0161E015
:1006E000812F0E9423021E8BFA86E986E881F98118
:1006F0000484F585E02D60E0CE01DF91CF911F915C
:10070000FF90EF9009940F931F93CF93DF93EC0129
:10071000162F042F61E0413009F060E08B850E94C4
:10072000F5018C858F3F19F060E00E94F5010230E1
:1007300079F08C8148E084FD0CC0612F70E084E08A
:10074000759567958A95E1F744E0CE010E9408030C
:1007500044E0612FCE01DF91CF911F910F910C9456
:100760000803DC01ED91FC910684F785E02D41E062
:10077000099581E090E00895DC01ED91FC910684FB
:10078000F785E02D40E009940F931F93CF93DF93FB
:10079000CDB7DEB728970FB6F894DEBF0FBECDBF3A
:1007A00000910701109108012091090130910A017F
:1007B0000D831E832F83388700910B0110910C014C
:1007C00020910D0130910E0109831A832B833C8304
:1007D00090919902691710F06FEF690F262F30E0A2
:1007E00040919A022C0F3D1FF901403199F4943049
:1007F00089F46181680F606882E992E028960FB6FB
:10080000F894DEBF0FBECDBFDF91CF911F910F9146
:100810000C94BC036581EECF0F931F93CF93DF93AE
:10082000EC01423018F08C8188608C834F8368879C
:10083000222329F0413019F48C8184608C8364E692
:1008400070E080E090E00E94D6026C8164FD55C0AB
:10085000E881F9810684F785E02D42E063E0CE016E
:1008600009950BE416E4C8010197F1F7E881F981D5
:100870000684F785E02D42E063E0CE010995C801CA
:100880000197F1F7E881F9810684F785E02D42E0D0
:1008900063E0CE01099583E592E00197F1F7E881E5
:1008A000F9810684F785E02D42E062E0CE010995EA
:1008B0006C816062CE010E94BC0384E08D836CE099
:1008C000CE010E94BC0361E0CE010E94BC038BE319
:1008D0009FE10197F1F782E08E8366E0CE010E94EE
:1008E000BC03E881F9810484F585E02D6FEFCE012A
:1008F000DF91CF911F910F9109946062CE010E9408
:10090000BC038BE496E40197F1F76C816062CE0141
:100910000E94BC0383E592E00197F1F76C8160626D
:10092000CE010E94BC03C4CF08950895089590E0BD
:1009300080E00895FB0101900020E9F73197AF01B5
:10094000461B570BDC01ED91FC910280F381E02DF9
:1009500009940E94BD0C0F931F93CF93DF93EC017A
:1009600088819981009759F02A813B8126173707A2
:1009700030F081E0DF91CF911F910F9108958B01AD
:100980006F5F7F4F0E94000C009759F09983888316
:100990001B830A832C813D81232B59F7FC01108294
:1009A000E8CF80E0E7CFEF92FF920F931F93CF93B2
:1009B000DF93EC017B01FB0101900020E9F7319707
:1009C0008F01061B170BB8010E94AB0428813981E7
:1009D000811113C02115310519F0C9010E94770B4F
:1009E000198218821D821C821B821A82DF91CF918C
:1009F0001F910F91FF90EF9008951D830C83B70115
:100A0000C901DF91CF911F910F91FF90EF900C944E
:100A1000CB0C1F920F920FB60F9211242F933F937E
:100A20004F935F936F937F938F939F93AF93BF93F6
:100A3000EF93FF9383EE91E00E94CA00FF91EF9144
:100A4000BF91AF919F918F917F916F915F914F91E6
:100A50003F912F910F900FBE0F901F9018951F92EE
:100A60000F920FB60F9211242F938F939F93EF93B2
:100A7000FF93E091F301F091F4018081E091F9019D
:100A8000F091FA0182FD1BC090818091FC018F5F83
:100A90008F732091FD01821741F0E091FC01F0E09D
:100AA000ED51FE4F958F8093FC01FF91EF919F9147
:100AB0008F912F910F900FBE0F901F9018958081EE
:100AC000F4CF1F920F920FB60F9211242F933F93E2
:100AD0008F939F93AF93BF938091B9019091BA0187
:100AE000A091BB01B091BC013091B80123E0230F6C
:100AF0002D3758F50196A11DB11D2093B8018093A3
:100B0000B9019093BA01A093BB01B093BC0180914D
:100B1000BD019091BE01A091BF01B091C0010196AD
:100B2000A11DB11D8093BD019093BE01A093BF0193
:100B3000B093C001BF91AF919F918F913F912F9141
:100B40000F900FBE0F901F90189526E8230F029666
:100B5000A11DB11DD2CF1F920F920FB60F9211247B
:100B60002F933F934F935F936F937F938F939F93B5
:100B7000AF93BF93CF93EF93FF93C091C201CC2368
:100B800051F08091B701811106C0809100010E944F
:100B9000CC018093B6018091B7018823D9F0809170
:100BA000B50191E0980F9093B501811113C060E0F9
:100BB0008AE00E94F50160E08CE00E94F50110924D
:100BC000B7018091B3019091B40101969093B40163
:100BD0008093B3018091B501883010F01092B50177
:100BE000CC2309F47AC08091B701811176C090912D
:100BF000B601992329F08091B2018F5F8093B201F1
:100C00008091B0012091B101921709F478C02BE0D6
:100C1000803508F02DE1820F8093B0019093B101EF
:100C20002091B001203A08F458C08091AE01909113
:100C3000AF01969587959093AF018093AE01309167
:100C4000B201353028F098609093AF018093AE01E7
:100C5000205A2093B0011092B2018091C1018823E3
:100C600009F46EC08091AD018F5F8093AD018C302F
:100C7000A0F14091AE015091AF01942F9F73EDE12F
:100C8000F1E0DF0180E02D91921721F08F5F80313C
:100C9000D1F780E090E1899F9001112486E056957C
:100CA00047958A95E1F780E09191491721F08F5F90
:100CB0008031D1F780E0822B9091E101911123C026
:100CC0008093AC019CEF980F9B31E8F01092C1012A
:100CD0008091AB018F5F8093AB01FF91EF91CF913A
:100CE000BF91AF919F918F917F916F915F914F9144
:100CF0003F912F910F900FBE0F901F9018958C5E13
:100D00008093B0018DCFE091E10191E09E0F90932F
:100D1000E101F0E0ED53FE4F80839091E10180917D
:100D2000AC01981750F01092C1018091AA018F5F19
:100D30008093AA0181E08093E2011092AD01CDCFB2
:100D40008091AE019091AF0188339B4031F681E0F4
:100D50008093C1011092AD011092E1011092E20165
:100D6000BCCFFC0180819181009711F00C94770B2E
:100D7000089580E892E00E94B10686E892E00E9421
:100D8000B1068CE892E00C94B106CF93DF93EC01AE
:100D9000198218821B821A821D821C8270E060E018
:100DA0000E94AB042881398181110FC021153105C2
:100DB00019F0C9010E94770B198218821D821C82CA
:100DC0001B821A82DF91CF9108951D821C826AE8EE
:100DD00071E0C901DF91CF910C94CB0CCF93DF93DD
:100DE0001092E6011092E50188EE93E0A0E0B0E0F9
:100DF0008093E7019093E801A093E901B093EA01A1
:100E000081E391E09093E4018093E30185EC90E02D
:100E10009093F0018093EF0184EC90E09093F201C5
:100E20008093F10180EC90E09093F4018093F301C2
:100E300081EC90E09093F6018093F50182EC90E0D4
:100E40009093F8018093F70186EC90E09093FA017B
:100E50008093F9011092FC011092FD011092FE01A5
:100E60001092FF01109295021092940283E491E097
:100E700090939302809392028CE080939D028FEF77
:100E800080939E028BE080939F0287E08093A00274
:100E900088E08093A10289E08093A2028AE0809397
:100EA000A3021092A4021092A5021092A602109220
:100EB000A702C0EAD2E061E089910E94230282E0A9
:100EC000C43AD807C1F761E080919D020E942302D5
:100ED00080919E028F3F19F061E00E94230261E041
:100EE00080919F020E9423021092960260E08091FE
:100EF0009D020E94F50160E080919F020E94F50131
:100F000080919E028F3F19F060E00E94F5018FEF03
:100F10008093A80210929C0210929B028CE892E0AF
:100F20000E94C50686E892E00E94C50680E892E02D
:100F3000DF91CF910C94C506CF93DF93CDB7DEB789
:100F40006E970FB6F894DEBF0FBECDBF789484B510
:100F5000826084BD84B5816084BD85B5826085BDB5
:100F600085B5816085BD80916E00816080936E0043
:100F70001092810080918100826080938100809135
:100F800081008160809381008091800081608093E6
:100F900080008091B10084608093B1008091B000A6
:100FA00081608093B00080917A00846080937A00A1
:100FB00080917A00826080937A0080917A008160CB
:100FC00080937A0080917A00806880937A001092F2
:100FD000C10061E083E00E94230261E082E00E94A0
:100FE000230220E042E060E182E992E00E940C04EA
:100FF0008DE0809300018EE0EFE0F1E09E012F5F35
:101000003F4F7901D90101900D928A95E1F76E0168
:1010100033E0C30ED11C11E0F601619171916F01B3
:1010200090E080E00E9468099B01AC0160E074E2FE
:1010300084E79BE40E942D0A9B01AC0160E070E014
:1010400080E89FE30E942D0A9B01AC016FE672E1EC
:1010500083E098E30E942D0A0E949F0A4B015C01E5
:10106000F2E08F1A9108A108B1082DEF82162FEF38
:101070009206A104B10408F427C11F5F173061F67E
:10108000623071058105910550F16115710531E0FE
:101090008307910520F51092800028E020938100BD
:1010A00020918100122B109381007093890060932E
:1010B000880080916F00826080936F0061E08CE017
:1010C0000E94230260E0809100010E94230261E0FF
:1010D0008AE00E94230260E08AE00E94F50180918C
:1010E000C201811105C081E08093C2011092C1014B
:1010F00060E080E00E94C40363E571E082E992E071
:101100000E949A0461E080E00E94C4036EE571E0F1
:1011100082E992E00E949A0461E082E00E94F50177
:1011200060E083E00E94F50168EE73E080E090E00B
:101130000E94D60261E082E992E00E94BC038BE348
:101140009FE10197F1F710E0C12E10E0D12E8091C0
:10115000E201882309F4ACC00091E10103500E3193
:1011600008F00EE110E0A80164EC71E0C7010E94F4
:10117000C20C1092E2013091E101E3ECF1E08FEF5B
:101180009FEF3150E0F02191282760E1269FA001D8
:1011900011242427422F50E0892F9927922BBA013E
:1011A000A4E075956795AA95E1F786279727B3E0A0
:1011B000440F551FBA95E1F784279527E2CF883B66
:1011C000904F09F075C04701C4018E199F0980171F
:1011D00091070CF06DC0F401B1904F016B2D83EEBF
:1011E00091E00E94EC0069E871E083EE91E00E94DA
:1011F0009A04F0E3BF1237C061E083E00E94F5017A
:1012000060E082E00E94F50183E00E94CC0101973A
:1012100031F469E971E08CE892E00E94D30483E044
:101220000E94CC01892B31F461EA71E08CE892E0F4
:101230000E94D30460E080E00E94C4038CE892E046
:101240000E949A0160E089E00E94C40386E892E06F
:101250000E949A0161E080E00E94C40380E892E06D
:101260000E949A01B1CF21E3B21206C060E083E090
:101270000E94F50161E0C5CF32E368E671E0B31684
:1012800029F063E3B61207C069E771E080E892E0F5
:101290000E94D304B9CF84E36BE871E0B81629F05B
:1012A000E5E3BE12B1CF62E971E086E892E0F0CFEB
:1012B000C114D10409F44BCF0E945901882309F4C9
:1012C00046CF0E94000043CF163009F0E4CE07CF8E
:1012D000E89409C097FB3EF49095809570956195D0
:1012E0007F4F8F4F9F4F9923A9F0F92F96E9BB2786
:1012F0009395F695879577956795B795F111F8CF02
:10130000FAF4BB0F11F460FF1BC06F5F7F4F8F4F6C
:101310009F4F16C0882311F096E911C0772321F062
:101320009EE8872F762F05C0662371F096E8862FFA
:1013300070E060E02AF09A95660F771F881FDAF751
:10134000880F9695879597F9089597F99F6780E894
:1013500070E060E008959FEF80EC089500240A9407
:101360001616170618060906089500240A94121680
:101370001306140605060895092E0394000C11F4B3
:10138000882352F0BB0F40F4BF2B11F460FF04C060
:101390006F5F7F4F8F4F9F4F089557FD9058440FB9
:1013A000551F59F05F3F71F04795880F97FB991FC4
:1013B00061F09F3F79F08795089512161306140681
:1013C000551FF2CF4695F1DF08C01616170618060E
:1013D000991FF1CF86957105610508940895E894E9
:1013E000BB2766277727CB0197F908952F923F9265
:1013F0004F925F926F927F928F929F92AF92BF9225
:10140000CF92DF92EF92FF920F931F93CF93DF93D0
:10141000CDB7DEB7CA1BDB0B0FB6F894DEBF0FBE2D
:10142000CDBF09942A88398848885F846E847D847A
:101430008C849B84AA84B984C884DF80EE80FD807C
:101440000C811B81AA81B981CE0FD11D0FB6F894F2
:10145000DEBF0FBECDBFED0108950E94410A0C947E
:10146000BC090E94B50958F00E94AE0940F029F469
:101470005F3F29F00C94A50951110C94F0090C94CC
:10148000AB090E94CD0968F39923B1F3552391F379
:10149000951B550BBB27AA2762177307840738F0E3
:1014A0009F5F5F4F220F331F441FAA1FA9F335D040
:1014B0000E2E3AF0E0E832D091505040E695001CF4
:1014C000CAF72BD0FE2F29D0660F771F881FBB1FAE
:1014D000261737074807AB07B0E809F0BB0B802D8C
:1014E000BF01FF2793585F4F3AF09E3F510578F0B8
:1014F0000C94A5090C94F0095F3FE4F3983ED4F3F3
:10150000869577956795B795F7959F5FC9F7880F8B
:10151000911D9695879597F90895E1E0660F771FDD
:10152000881FBB1F621773078407BA0720F0621B6E
:10153000730B840BBA0BEE1F88F7E09508950E9499
:10154000A60A6894B1110C94F00908950E94D50977
:1015500088F09F5798F0B92F9927B751B0F0E1F074
:10156000660F771F881F991F1AF0BA95C9F714C024
:10157000B13091F00E94EF09B1E008950C94EF09A9
:10158000672F782F8827B85F39F0B93FCCF386955D
:1015900077956795B395D9F73EF4909580957095BA
:1015A00061957F4F8F4F9F4F0895EE0FFF1F05905E
:1015B000F491E02D09940F931F93CF93DF93823022
:1015C000910510F482E090E0E091AB02F091AC0262
:1015D00030E020E0B0E0A0E0309799F4211531052B
:1015E00009F44AC0281B390B24303105D8F58A810B
:1015F0009B816115710589F1FB0193838283FE0153
:1016000011C0408151810281138148175907E0F0D0
:101610004817590799F4109761F012960C93129796
:1016200013961C933296CF01DF91CF911F910F91AA
:1016300008950093AB021093AC02F4CF211531054D
:1016400051F04217530738F0A901DB019A01BD019F
:10165000DF01F801C1CFEF01F9CF9093AC02809385
:10166000AB02CDCFFE01E20FF31F81939193225085
:10167000310939832883D7CF2091A9023091AA025A
:10168000232B41F420910301309104013093AA02ED
:101690002093A90220910101309102012115310509
:1016A00041F42DB73EB74091050150910601241B2E
:1016B000350BE091A902F091AA02E217F307A0F41A
:1016C0002E1B3F0B2817390778F0AC014E5F5F4F98
:1016D0002417350748F04E0F5F1F5093AA0240931E
:1016E000A902819391939FCFF0E0E0E09CCFCF934C
:1016F000DF930097E9F0FC01329713821282A091E8
:10170000AB02B091AC02ED0130E020E01097A1F403
:1017100020813181820F931F2091A9023091AA026A
:101720002817390709F061C0F093AA02E093A902D3
:10173000DF91CF910895EA01CE17DF07E8F54A81DE
:101740005B819E0141155105B1F7E901FB83EA83F5
:1017500049915991C40FD51FEC17FD0761F48081A1
:1017600091810296840F951FE90199838883828174
:1017700093819B838A83F0E0E0E012968D919C91A7
:1017800013970097B9F52D913C911197CD010296D1
:10179000820F931F2091A9023091AA0228173907BE
:1017A00039F6309751F51092AC021092AB02B0931B
:1017B000AA02A093A902BCCFD383C28340815181E6
:1017C000840F951FC817D90761F44E5F5F4F88815A
:1017D0009981480F591F518340838A819B8193834C
:1017E00082832115310509F0B0CFF093AC02E0936C
:1017F000AB029ECFFD01DC01C0CF13821282D7CF96
:10180000B0E0A0E0E6E0FCE00C94F8098C01009761
:1018100051F4CB010E94DB0A8C01C801CDB7DEB7C1
:10182000E0E10C94140AFC01E60FF71F9C01225022
:101830003109E217F30708F49DC0D901CD91DC917D
:101840001197C617D70798F0C530D10530F3CE01F0
:1018500004978617970708F3C61BD70B2297C193E7
:10186000D1936D937C93CF010E94770BD6CF5B0110
:10187000AC1ABD0A4C018C0E9D1EA091AB02B0911A
:10188000AC02512C412CF12CE12C109731F58091B8
:10189000A9029091AA028815990509F05CC0461624
:1018A000570608F058C080910101909102010097FD
:1018B00041F48DB79EB74091050150910601841BFC
:1018C000950BE817F90708F055C0F093AA02E093CA
:1018D000A902F90171836083A0CF8D919C9111972A
:1018E00012966C90129713967C901397A815B905D1
:1018F00059F56C0142E0C40ED11CCA14DB0420F17E
:10190000AC014A195B09DA011296159780F06282E0
:10191000738251834083D9016D937C93E114F10468
:1019200071F0D7011396FC93EE93129776CF22961F
:101930008C0F9D1FF90191838083F301EFCFF0930A
:10194000AC02E093AB0269CF4816590608F42C01AB
:101950007D01D3019ACFCB010E94DB0A7C01009765
:1019600049F0AE01B8010E94C20CC8010E94770B79
:10197000870153CF10E000E050CF81E090E0F89471
:101980000C94D20CFB01DC0102C001900D9241507D
:101990005040D8F70895FB01DC0101900D92002022
:1019A000E1F7089510E0C2E6D0E004C0FE010E9415
:0E19B000D50A2196C336D107C9F7F894FFCFA8
:1019BE000B0000AD02800000401454004010500097
:1019CE000001000800400000010004050D0D0E137B
:1019DE001516191A1C232526292A2C32340000002C
:1019EE0000EC006D018D003901BE009C00B00000BE
:1019FE00000000B1036D01970496040C0467033ECA
:101A0E00038303536D6172742062696B650020203D
:101A1E002068656C6D657400414C434F484F4C20F7
:101A2E004445544543544544002020204E4F204108
:101A3E004C434F484F4C202020200048454C2D4908
:101A4E004E0048454C2D4E4F004D54522D204F4EBA
:0A1A5E00004D54522D4F4646000083
:00000001FF
