:100000000C9461000C947E000C947E000C947E0095
:100010000C947E000C947E000C947E000C947E0068
:100020000C947E000C947E000C947E000C9459027B
:100030000C947E000C947E000C947E000C947E0048
:100040000C940F020C947E000C947E000C947E00A5
:100050000C947E000C947E000C947E000C947E0028
:100060000C947E000C947E00000000002400270009
:100070002A0000000000250028002B0000000000DE
:1000800023002600290004040404040404040202DA
:100090000202020203030303030301020408102007
:1000A0004080010204081020010204081020000012
:1000B0000008000201000003040700000000000027
:1000C000000011241FBECFEFD8E0DEBFCDBF11E08E
:1000D000A0E0B1E0E4E6FAE002C005900D92A0379E
:1000E000B107D9F721E0A0E7B1E001C01D92A43823
:1000F000B207E1F70E94CB020C9430050C9400008B
:10010000833081F028F4813099F08230A9F008958D
:100110008730A9F08830C9F08430B1F48091800034
:100120008F7D03C0809180008F7780938000089539
:1001300084B58F7784BD089584B58F7DFBCF809182
:10014000B0008F778093B00008958091B0008F7DCC
:10015000F9CFCF93DF93282F30E0F901E255FF4F1D
:100160008491F901E656FF4FD491F901EA57FF4F08
:10017000C491CC23A1F081110E948000EC2FF0E00B
:10018000EE0FFF1FE458FF4FA591B491EC91ED23C2
:1001900081E090E009F480E0DF91CF91089580E064
:1001A00090E0FACF1F93CF93DF93282F30E0F9012F
:1001B000E255FF4F8491F901E656FF4FD491F901C2
:1001C000EA57FF4FC491CC23A9F0162F81110E944A
:1001D0008000EC2FF0E0EE0FFF1FEE58FF4FA591CF
:1001E000B4918FB7F894EC91111108C0D095DE232B
:1001F000DC938FBFDF91CF911F910895DE2BF8CF55
:10020000CF93DF9390E0FC01E656FF4F24918A578D
:100210009F4FFC0184918823D1F090E0880F991FB3
:10022000FC01E859FF4FA591B491FC01EE58FF4F36
:10023000C591D49161110EC09FB7F8948C91E22FB3
:10024000E0958E238C932881E223E8839FBFDF9182
:10025000CF9108958FB7F894EC91E22BEC938FBF78
:10026000F6CF3FB7F8948091790190917A01A091EF
:100270007B01B0917C0126B5A89B05C02F3F19F0EA
:100280000196A11DB11D3FBFBA2FA92F982F882716
:10029000BC01CD01620F711D811D911D42E0660FF1
:1002A000771F881F991F4A95D1F708958F929F92C3
:1002B000AF92BF92CF92DF92EF92FF920E943101F4
:1002C0004B015C018EE1C82ED12CE12CF12C0E9457
:1002D0003101681979098A099B09683E73408105D3
:1002E0009105A8F321E0C21AD108E108F10888EECF
:1002F000880E83E0981EA11CB11CC114D104E10436
:10030000F10429F7FF90EF90DF90CF90BF90AF906E
:100310009F908F90089580917F018111FCCF089567
:10032000CF93DF93EC010E948B01A1E0B1E08DE05F
:1003300018968C93189786E119968C931997E881F3
:1003400023EA2E2730E1239FC0011124282730E023
:10035000F0E084E0F595E7958A95E1F7ED5AFE4FD8
:1003600080811A968C931A97E881EF70F0E0ED5A2D
:10037000FE4F80811B968C931B97922F8827896450
:10038000A90164E0559547956A95E1F7842795277B
:1003900073E0220F331F7A95E1F782279327809528
:1003A0009095FC01C4E0F695E795CA95E1F7EF70EA
:1003B000FF27ED5AFE4F20811C962C931C97FC01C1
:1003C000EF70FF27ED5AFE4F20811D962C931D974D
:1003D000FC01EF2FFF27E295EF70ED5AFE4F2081D1
:1003E0001E962C931E97E92FFF27EF70FF27ED5ADB
:1003F000FE4F80811F968C9380E180938301109241
:100400008201109281011092800161E08AE00E94D5
:10041000D20081E080937F01DF91CF9108951F92F8
:100420000F920FB60F9211242F933F938F939F93A8
:10043000AF93BF938091750190917601A091770160
:10044000B09178013091740123E0230F2D3758F5D6
:100450000196A11DB11D20937401809375019093A5
:100460007601A0937701B093780180917901909102
:100470007A01A0917B01B0917C010196A11DB11D73
:100480008093790190937A01A0937B01B0937C01D2
:10049000BF91AF919F918F913F912F910F900FBE80
:1004A0000F901F90189526E8230F0296A11DB11DED
:1004B000D2CF1F920F920FB60F9211241F932F933A
:1004C0003F934F935F936F937F938F939F93AF93DC
:1004D000BF93CF93DF93EF93FF9380917F018823A6
:1004E00019F18091800191E0980F90938001811122
:1004F0001BC0C09182011091000180918301C81737
:1005000068F160E08AE00E94D20060E0812F0E94E2
:10051000D20010927F018091720190917301019637
:10052000909373018093720180918001883010F064
:1005300010928001FF91EF91DF91CF91BF91AF9128
:100540009F918F917F916F915F914F913F912F91EB
:100550001F910F900FBE0F901F901895EC2FF0E099
:10056000EF5FFE4F608120918101D1E0D20FD093E7
:10057000810181E090E001C0880F2A95EAF76823A5
:10058000812F0E94D200D630A8F210928101CF5F55
:10059000C0938201C9CFCF93DF93CDB7DEB72E973B
:1005A0000FB6F894DEBF0FBECDBF789484B58260DD
:1005B00084BD84B5816084BD85B5826085BD85B507
:1005C000816085BD80916E00816080936E00109285
:1005D0008100809181008260809381008091810000
:1005E0008160809381008091800081608093800091
:1005F0008091B10084608093B1008091B0008160EF
:100600008093B00080917A00846080937A0080911A
:100610007A00826080937A0080917A008160809372
:100620007A0080917A00806880937A001092C100ED
:1006300060E081E00E9400018DE0809300018EE087
:10064000E5E4F1E0DE01119601900D928A95E1F763
:100650007E0123E0E20EF11C11E0F701619171913E
:100660007F0190E080E00E94A2049B01AC0160E069
:1006700074E284E79BE40E94FA039B01AC0160E012
:1006800070E080E89FE30E94FA039B01AC016FE6F3
:1006900072E183E098E30E94FA030E946C044B012C
:1006A0005C01F2E08F1A9108A108B1082DEF8216C3
:1006B0002FEF9206A104B10408F498C01F5F173011
:1006C00061F6623071058105910550F16115710582
:1006D000E1E08E07910520F51092800028E020933C
:1006E000810020918100122B10938100709389006A
:1006F0006093880080916F00826080936F0061E05A
:10070000809100010E94000160E08BE00E940001E6
:1007100061E08AE00E94000160E08AE00E94D2006D
:1007200080E4F82E90E0C92E90E0D92EF0927C0063
:1007300080917A00806480937A0080917A0086FDAF
:10074000FCCF8091780000917900102F082F109332
:100750007E0100937D01083C1105A4F481E00E9414
:10076000A900019779F483E691E00E9490010E942C
:100770008B010E94560189E691E00E9490010E943F
:100780008B0111C085E691E00E9490010E948B01CF
:10079000093C11053CF187E691E00E9490010E941E
:1007A0008B010E94560181E00E94A900019741F44B
:1007B0008BE691E00E9490010E948B010E945601FD
:1007C00081E00E94A900892B31F48DE691E00E941E
:1007D00090010E948B01C114D10409F4A7CF0E949B
:1007E0000000A4CF083C1105F1F2C5CF163009F086
:1007F00073CF96CF0E940E040C94F6040E94EF046F
:1008000058F00E94E80440F029F45F3F29F00C946E
:10081000DF0451110C942A050C94E5040E9407058D
:1008200068F39923B1F3552391F3951B550BBB271F
:10083000AA2762177307840738F09F5F5F4F220F64
:10084000331F441FAA1FA9F335D00E2E3AF0E0E85B
:1008500032D091505040E695001CCAF72BD0FE2FA5
:1008600029D0660F771F881FBB1F26173707480739
:10087000AB07B0E809F0BB0B802DBF01FF279358F1
:100880005F4F3AF09E3F510578F00C94DF040C94D2
:100890002A055F3FE4F3983ED4F3869577956795F4
:1008A000B795F7959F5FC9F7880F911D9695879526
:1008B00097F90895E1E0660F771F881FBB1F621745
:1008C00073078407BA0720F0621B730B840BBA0B03
:1008D000EE1F88F7E09508950E9473046894B111A3
:1008E0000C942A0508950E940F0588F09F5798F0F0
:1008F000B92F9927B751B0F0E1F0660F771F881F25
:10090000991F1AF0BA95C9F714C0B13091F00E943E
:100910002905B1E008950C942905672F782F8827C1
:10092000B85F39F0B93FCCF3869577956795B39565
:10093000D9F73EF490958095709561957F4F8F4FD4
:100940009F4F0895E89409C097FB3EF490958095D9
:10095000709561957F4F8F4F9F4F9923A9F0F92F85
:1009600096E9BB279395F695879577956795B79503
:10097000F111F8CFFAF4BB0F11F460FF1BC06F5FE9
:100980007F4F8F4F9F4F16C0882311F096E911C0FB
:10099000772321F09EE8872F762F05C0662371F01C
:1009A00096E8862F70E060E02AF09A95660F771F30
:1009B000881FDAF7880F9695879597F9089597F924
:1009C0009F6780E870E060E008959FEF80EC0895F5
:1009D00000240A941616170618060906089500241E
:1009E0000A9412161306140605060895092E039498
:1009F000000C11F4882352F0BB0F40F4BF2B11F40C
:100A000060FF04C06F5F7F4F8F4F9F4F089557FD6A
:100A10009058440F551F59F05F3F71F04795880F6C
:100A200097FB991F61F09F3F79F087950895121603
:100A300013061406551FF2CF4695F1DF08C01616AF
:100A400017061806991FF1CF869571056105089460
:100A50000895E894BB2766277727CB0197F9089577
:040A6000F894FFCF38
:100A64000C2A2A2A2A2A2A382C0000000000000016
:100A74000000000000000000000000000000000072
:100A84000000000000000000000000000000000062
:100A94000000000000000000000000000000000052
:100AA40000000000000000010008004000000100F8
:100AB40004050D0D0E131516191A1C232526292AB3
:100AC4002C32343000310032003300340035000061
:00000001FF
